:020000040800F2
:10000000981300204D0200080D1600080516000880
:100010000916000871120008911B0008000000007A
:1000200000000000000000000000000009180008A7
:10003000FD1400080000000025170008F118000852
:1000400067020008670200086702000867020008EC
:1000500067020008670200086702000867020008DC
:1000600067020008670200086702000867020008CC
:1000700067020008670200086702000867020008BC
:100080009112000867020008670200086702000872
:10009000670200086702000867020008670200089C
:1000A000670200086702000867020008670200088C
:1000B000670200086702000867020008670200087C
:1000C000670200086702000867020008670200086C
:1000D000670200086702000867020008670200085C
:1000E000670200086702000867020008670200084C
:1000F000670200086702000867020008670200083C
:10010000670200086702000867020008670200082B
:10011000670200086702000867020008670200081B
:10012000670200086702000867020008670200080B
:1001300067020008670200086702000867020008FB
:1001400067020008670200086702000867020008EB
:1001500067020008670200086702000867020008DB
:1001600067020008670200086702000867020008CB
:1001700067020008670200086702000867020008BB
:10018000670200086702000800F002F800F04FF86C
:100190000AA090E8000C82448344AAF10107DA45E2
:1001A00001D100F044F8AFF2090EBAE80F0013F0E5
:1001B000010F18BFFB1A43F0010318476C610000E0
:1001C0008C610000103A24BF78C878C1FAD8520771
:1001D00024BF30C830C144BF04680C6070470000C1
:1001E0000023002400250026103A28BF78C1FBD840
:1001F000520728BF30C148BF0B607047642900F028
:100200008F80002070471FB505F0BCFE00F066FD32
:1002100004000020002105F01FF8401C6060002051
:10022000002105F003F8E0601FBD10B510BD00F01F
:1002300061FA1146FFF7E7FF02F046FF00F004FD08
:1002400003B4FFF7F2FF03BC00F0FCFF094880474E
:1002500009480047FEE7FEE7FEE7FEE7FEE7FEE7A8
:10026000FEE7FEE7FEE7FEE704480549054A064BC0
:10027000704700000D19000889010008980D002042
:1002800098130020980F0020980F00200FB41CB581
:10029000084B06AA7B4469460090059800F055F982
:1002A00004460020694600F063F920461CBC5DF856
:1002B00014FB0000D90200002DE9F0410E4604466F
:1002C000002020622046E168884730B3252805D009
:1002D000D4E901219047206A401CF2E7E1682046FA
:1002E00000278847050018D0A5F14100192802D839
:1002F00020354FF400673246294620462760FFF735
:100300007DFF40B1012804D0F61D26F0070608360F
:10031000D8E7361DD6E72846DAE7206ABDE8F0813F
:100320002DE9F0410646002410687529314616A5CE
:1003300010D0AFF30080002802DA404213A507E096
:1003400031688A0701D512A502E0490704D511A535
:10035000012401E0AFF3008000210A2206F1240706
:1003600009E0B0FBF2FCB0FBF2F302FB1C00303002
:1003700078541846491C0028F3D123462A463046B3
:10038000BDE8F04100F082B8000000002D00000040
:100390002B00000020000000032A40F2308010F003
:1003A000030C00F0158011F8013BBCF1020F624410
:1003B00098BF11F801CB00F8013B38BF11F8013BA1
:1003C000A2F1040298BF00F801CB38BF00F8013B4E
:1003D00011F0030300F02A81083AC0F0088051F8B8
:1003E000043B083A51F804CBA0E80810F5E7121DC9
:1003F0005CBF51F8043B40F8043BAFF30080D207E8
:1004000024BF11F8013B11F801CB48BF11F8012BB3
:1004100024BF00F8013B00F801CB48BF00F8012BD6
:1004200070474FF0000200B51346944696462039B7
:1004300022BFA0E80C50A0E80C50B1F12001BFF49D
:10044000F7AF090728BFA0E80C5048BF0CC05DF803
:1004500004EB890028BF40F8042B08BF704748BF51
:1004600020F8022B11F0804F18BF00F8012B7047C5
:1004700070477047704710B500F00AF9006810BD6A
:1004800010B5044600F004F9046010BD2DE9F047F2
:100490000D4699469246044600F1240801688806F4
:1004A00004D5E06921F01001216000E00120A8429C
:1004B00001DD471B00E00027A1697A1902EB090062
:1004C000081AA0612078C00602D42046AFF300804D
:1004D000002608E0D4E901211AF806009047206AB6
:1004E000401C761C20624E45F4DB2078C0060AD5FD
:1004F0002046AFF3008006E0D4E901213020904788
:10050000206A401C2062381EA7F10107F4DC07E0D6
:10051000D4E9012118F805009047206A401C2062A8
:10052000281EA5F10105F3DC2046AFF300802078FA
:10053000000602D50220BDE8F0870120FBE700009D
:1005400001694A1C02610878704700B58FB0CDE997
:1005500001310021059105497944CDE90310114687
:100560006846FFF7A9FE0FB000BD0000E5FFFFFFE2
:100570000A6802F8010B0A60704700000FB40B0014
:1005800010B54FF000048AB00FA900910E99CC600D
:10059000234C7C44234A7A44CDE9064200D004230C
:1005A0006FF00042CDE901321F4A7A446B4608924F
:1005B0000246002005F05BFD0AB010BC5DF814FB9C
:1005C000F0B507464FF0FF301E4615460C463B4639
:1005D00085B06A460091CDE90101314600200490C2
:1005E00004A8FFF7CBFF04990346601825B109B1B1
:1005F000024600E022462A6000290ED0002B02DDD0
:100600000099814209D03B466A463146001B00945E
:10061000CDE9010404A8FFF7B1FF05B0F0BD00006B
:10062000150100002F010000EB00000010B5203A7A
:10063000C0F00B80B1E81850A0E81850B1E818508D
:10064000A0E81850203ABFF4F5AF5FEA027C24BF5F
:10065000B1E81850A0E8185044BF18C918C0BDE848
:1006600010405FEA827C24BF51F8043B40F8043B11
:1006700008BF7047D20728BF31F8023B48BF11F8C6
:10068000012B28BF20F8023B48BF00F8012B704720
:10069000004870472801002010B5044600F050F8CB
:1006A0000068005D00F0010010BD426842B10168C1
:1006B00011F8013B23B1521EC0E9001218467047E1
:1006C0000121C160881E704742685AB1C368016841
:1006D00043B983688B4205D0491E521CC0E9001201
:1006E000002070474FF0FF3070470000004870470F
:1006F000280100207546FFF7F9FFAE460500694660
:10070000534620F00700854618B020B5FFF7ACFD32
:10071000BDE820404FF000064FF000074FF0000802
:100720004FF0000BAC46ACE8C009ACE8C009ACE83F
:10073000C009ACE8C00921F007018D4670470000F0
:1007400010B500F0CBFA001D10BD00BF0D4B00002E
:100750002DE9FF4F06468BB00878FF2806D0491CCC
:100760002D2805D000244FF0000908E000200CE0FF
:100770000124F8E709EB8903491C00EB43090878D9
:10078000FF28F7D114B1C9F1000081461078002587
:100790002C46AA4629462D2801D02B2804D1521CCC
:1007A0002D2813D0002082468B461078FF280FD0CA
:1007B0004FF0000C0A21521CA5FB017804FB0181BB
:1007C00005FB0C11C5194BEB0104EEE70120EAE72C
:1007D000002108464FF00000BAF1000F02D000EBF4
:1007E00080004008C0F38157012F01DD4FF0FF3733
:1007F0000E9955EA040009EB01080BD04FF00209ED
:1008000018F5FA7F16DA4FEACA70002F706008DD1B
:10081000012007E04FEACA70C6E900B00FB0BDE89A
:10082000F08F00203060FFF733FFC0F800901821F0
:10083000084616E0B8F5FA7F18DD002F02DAF7480F
:10084000784401E0F6487844D0E90010C6E9001089
:1008500040EACA707060FFF71BFFC0F800901421D7
:1008600008460FB0BDE8F04F05F09EBB00210846DA
:100870004FF00000B8F10001099002DAC7F1000260
:1008800000E03A4601DAC8F1000106A800F03EFA9D
:1008900006AB93E8070003AB83E8070044F23E0091
:1008A0005BEA04010090584604D144F21E012C4634
:1008B0005D460091210C0904014306D100992404EE
:1008C00044EA15442D041039009104F07F4101439E
:1008D00006D10099240244EA15642D0208390091DA
:1008E00004F07041014306D10099240144EA1574D3
:1008F0002D01091F009104F04041014306D10099E8
:10090000A40044EA9574AD00891E009104F00041F2
:10091000084304D100986D196441401E00904FF0C7
:1009200001033A466846B8F1000FCDE9014503A935
:1009300002DD02F0F0FF01E002F0C3FFBAF1000FA8
:1009400004460D4601D084F00044002108464FF0D3
:100950000000099940F2FF77484010F00C0F07D1D2
:1009600024F00040284303D0C4F30A50B84212D107
:10097000FFF78EFEC0F80090C4F30A50B8420AD1C7
:10098000A8487844D0E90010C6E9001004F00041FE
:100990000843706042E7C6E900543FE72DE9FF4F86
:1009A0001F464FF0000A4FF0FF38454691B0D7E997
:1009B0000146CDF83CA000F091F9C0680168405CA8
:1009C0001090B96912986D1C8847396A814688472A
:1009D0000028F6D1B9F1FF3F0AD0002E24F4D064EC
:1009E00011DDB9F12B0F08D0B9F12D0F0BD102E0B9
:1009F000404615B013E744F48064B96912986D1C41
:100A00008847761E8146600504A901D52D2000E0A7
:100A10002B20002E01F1010B0DF130088DF8100094
:100A20003FDDB9F1690F08D0B9F1490F05D0B9F12F
:100A30006E0F02D0B9F14E0F1CD13B4601A80095B4
:100A400080E85002DDE912126FF0020005F013FB9E
:100A5000C11CCED10EE0B96912986D1C8847814641
:100A60001398761E44F4007405600F98401C002E05
:100A70000F9016DDB9F1300FEDD0B9F1780F02D03B
:100A8000B9F1580F0DD10F9801280AD13B46CDE995
:100A90000054DDE91212001F029605F0EAFAC11CAB
:100AA000A7D1109989453ED144F0800406E01399FE
:100AB000681CAAF1010A44F400740860B9696D1C4D
:100AC0001298761E884730288146F0D02BE0109986
:100AD000894505D1200603D4761E44F0800418E031
:100AE000484604F042FB08B3761E0DF123029345FD
:100AF000A9F1300044F4007406D20BF8010B200673
:100B000007D5AAF1010003E0200602D40AF1010092
:100B10008246A00502D51399681C0860B96912982D
:100B20006D1C88478146002ED1DC53E0002E51DD3C
:100B3000B9F1650F02D0B9F1450F4BD1A00549D5E8
:100B4000B9696D1C1298761E24F440748847002EF3
:100B500081460CDD2B2804D0B9F12D0F07D144F4C8
:100B60008074B96912986D1C8847761E8146E0052D
:100B700001D52D2100E02B2108F8011BCDF80080C4
:100B800021E0761E0DF13901884544F400740CD241
:100B9000A9F1300010F0FF0088F8000002D10099A0
:100BA000884509D908F1010806E0E00501D51E488D
:100BB00001E042F20F708246B96912986D1C8847B5
:100BC000814613980560002E04DD484604F0CDFAF6
:100BD0000028D6D1F96912988847FF2053468BF830
:100BE000000088F8000000200A900B9004AA0CA9CD
:100BF0000AA8FFF7ADFDA00502D46FF00100F8E6EA
:100C000014F0240F12D0E0071CD13868DDE90A1275
:100C1000031D3B600068C0E9001213E00C5B00009C
:100C2000FE5A0000C2590000F1D8FFFF0AA9684629
:100C300004F088FAE00705D13868009A011D396090
:100C4000006802602846D4E610B50446AFF3008081
:100C50002046BDE81040FFF7F3BA00000000000096
:100C600030B44FF0013C50F8042B51F8043BCCFA5F
:100C700052F4D51A20D1FCB950F8042B51F8043B9A
:100C8000CCFA52F4D51A17D1B4B950F8042B51F854
:100C9000043BCCFA52F4D51A0ED16CB950F8042B9F
:100CA00051F8043BCCFA52F4D51A05D1002CDAD015
:100CB00030BC4FF00000704729BAB1FA81F111F051
:100CC0001801D1F120008440F2D1CA40CB4012F08B
:100CD000FF0213F0FF0330BCD01A70470048704782
:100CE00048010020B2F120030AD5C2F1200301FA25
:100CF00002F120FA03F341EA030100FA02F070471F
:100D000000FA03F14FF00000704700002DE9F047B2
:100D1000814616468AB0354878440DC88DE80D00E6
:100D200032487844801C03AC0DC884E80D0041F6BD
:100D30009B300844372190FBF1F290FBF1F5A5F1CF
:100D4000800501FB12041B3C02D56442012000E037
:100D50000020DFF898A080460027FA44AAF1BE0AD6
:100D60000EE0E0070AD03246684607EB4701012350
:100D70000AEB810102F0BAFD8DE8070064107F1CC8
:100D8000002CEED1194F7F44AE3F19E0E80715D093
:100D900007EB04100DF1180A90E80E008AE80E0027
:100DA000C068F04201D1981908903246012306A983
:100DB00003A802F09BFD03AB83E807006D10641CE1
:100DC000002DE3D14FF0010332466946B8F1000F20
:100DD00003A802D002F060FD01E002F087FDC9E93E
:100DE0000001C9F808200AB0BDE8F087C05500002E
:100DF0002DE9FF4F1F464FF03C0987B04FF00042EE
:100E0000DDE9141001F10108DDF858A002EA4050B4
:100E10000390002005908346054604460490B96976
:100E2000461E08988847AAF1010A0290BAF1000FFD
:100E30003BDD02982E2815D0102100F009FA002879
:100E40002EDB4FF0010B0599014317D0B9F1000FCC
:100E50000BDB4A46C117FFF745FF05430C43A9F1D9
:100E6000040905E0012004900BE008B145F00105FC
:100E700001200590049820B9361D02E0049800B1C5
:100E8000361FB969089808F101088847BBF1000FBF
:100E9000AAF1010A0290C9D00999C1F80080C5E7FA
:100EA0000298702808D0502806D0F9690898884719
:100EB000BBF1000F14D04FE0002002900120BBF1E5
:100EC000000F049009D0B969089808F10108884713
:100ED000AAF10109B9F1000F07DCF9690898884700
:100EE0006FF001000BB0BDE8F08F2B2804D02D2847
:100EF0000CD14FF0FF300490B969089808F101084F
:100F00008847A9F10109B9F1000FE6DD411CE4D0E1
:100F10000A2100F09DF90028DFDB029908F10108A1
:100F200001EB810100EB41000290B9690898884704
:100F30000A2100F08DF9099AA9F10109B9F1000F10
:100F4000C2F8008001DD0028E7DAF96908988847CF
:100F50000499029800FB016655EA040004D004F0ED
:100F60004041090002D006E0039898E0A40044EA5A
:100F70009574AD00B61E04F00041080002D16D1951
:100F80006441761E159810F0240F03D04FF00B0922
:100F90005C4803E04FF028096FF07D00824656451B
:100FA00007DAAAEB06018944B9F1410F01DD4FF0E0
:100FB000410901200021A9F10102FFF793FE024639
:100FC00028400B462140084301D0012100E00021C8
:100FD000501E029143F1FF3128402140084301D0C7
:100FE000012000E000200299834651EA0B014FD016
:100FF000002108464FF00000039900F4400039B189
:1010000000EB80004FF4400100EBD07001EA60007B
:101010008015012802DD4FF0FF3000E013D0401CA6
:1010200036D0029860B3BBF1000F0CD14A460120C4
:101030000021FFF757FE28402140084301D001203E
:1010400000E00020E0B101204A460021FFF74AFEFF
:10105000034640190A4661412D1A8C4111D3B9F15A
:10106000400F09DD159810F0240F02D0AAF13406C4
:1010700003E0AAF1170600E0761C00254FF00044BB
:1010800006E05B1E42F1FF3220EA030521EA02047A
:10109000CAF10100B04206DA1B49039808430190E7
:1010A000002000900EE0039AC4F3D321E80A0A431B
:1010B000164940EA44500A433146CDE900026846E9
:1010C00004F049F8159810F0240F0BD01598C007BC
:1010D00015D13868DDE90012031D3B600068C0E9E6
:1010E00000120CE002A8694604F02CF81598C0071D
:1010F00005D13868029A011D3960006802604046D7
:10110000F0E6000002FCFFFF0000F07F0000F03F6F
:101110002DE9FF4F92461D4685B04FF00041DDE9B5
:10112000124BDDE914727F1E01EA4B50414940F039
:10113000FF4940EA0108002122F0200049280491DB
:1011400002D04E2828D04CE03BA0012607C88DE8ED
:101150000700A9690698641C88477F1E014606D4CB
:101160001DF8060018B121F0200181420BD0E96979
:1011700006988847032E34D0082E32D06FF0010035
:1011800009B0BDE8F08F761C032E01D0082EE0D107
:10119000601CCAF80000DCE7A9690698641C88474F
:1011A0007F1E2AD420F02000412826D1A969069864
:1011B000641C88477F1E20D420F020004E281CD1BC
:1011C000A9690698641C88477F1E48F4002849F4E2
:1011D0008009CAF8004001D4282806D0E969069899
:1011E00088475FEACB7012D022E0A9690698641C98
:1011F00088477F1E01D4002803DAE96906988847EA
:10120000BCE72928F1D1641CCAF80040E9E71BF0CB
:10121000240F07D028680499031D2B600068C0E9DB
:10122000001805E02868021D2A600068C0F80090D8
:101230002046A5E70000F07F494E46494E495459E3
:101240000000000001491820ABBEFEE726000200A6
:101250003A2800D2303820F02002412A01D3A2F1EE
:101260003700884201D34FF0FF30704770470000CD
:10127000FEE7000080B582B0D0F803100068CDF81A
:1012800003100090684602F013FD02B080BD00001C
:1012900070B546F28804C4F2020448F60001C2F2B6
:1012A0000001204600F0B8F840F60856C2F20006E9
:1012B00040F604503178C2F200007278016040F6C6
:1012C000E840C2F200000260D6F80200D6F806102C
:1012D00040F6F845C2F20005C5E900012846FFF7CF
:1012E000C9FF40F2C810C2F20000D6F80A10D6F8C2
:1012F0000E2080ED000B2846C5E90012FFF7BAFF6B
:1013000040F2B010C2F20000D6F81210D6F8162043
:1013100080ED000B2846C5E90012FFF7ABFF40F255
:10132000A810C2F20000D6F81A10D6F81E2080EDE0
:10133000000B2846C5E90012FFF79CFF40F2A01001
:10134000C2F20000D6F82210D6F8262080ED000B5D
:101350002846C5E90012FFF78DFF40F2D810C2F20F
:101360000000D6F82A10D6F82E2080ED000B284673
:10137000C5E90012FFF77EFF40F2B810C2F200008C
:10138000D6F83210D6F8362080ED000B2846C5E995
:101390000012FFF76FFF40F29010C2F20000D6F883
:1013A0003A10D6F83E2080ED000B2846C5E9001221
:1013B000FFF760FF40F29810C2F2000080ED000BD2
:1013C00096F8420040F67E51C2F2000108702046B5
:1013D0000121012400F03AF840F60050C2F200006A
:1013E000046070BD46F20002C4F2020202F582639C
:1013F000984240F67D7002F58062C0F67D703CBF79
:1014000046F20002C4F202028B0000EA010054BF5F
:101410009060D0607047000046F20002C4F2020201
:1014200002F58263984240F67D7002F58062C0F654
:101430007D703CBF46F20002C4F202028B0000EA5B
:10144000010054BF9060D06070470000026800291E
:1014500042F0010308BF22F001030360704700005F
:101460000B0608D5D0F814C0002A4CF0800308BF42
:101470002CF080034361802908BF704701F01E01F2
:101480001AB10268114301607047026822EA010143
:10149000016070472DE9F04F026848F23F03CFF238
:1014A0001C03D1F800901A40D1E9038E01F1140C0D
:1014B0009CE8F01042EA090242EA080222432A4369
:1014C00032438B6A3A43D1E90DAB42EA0C021A432C
:1014D00042EA0A0242EA0B0202604269D1E90B3792
:1014E00022F007021A433A434261C0F804E04A6816
:1014F00082608968C160BDE8F08F0000704700001D
:1015000081B0242040F2881CC4F20100C2F2000C19
:101510000068DCF80020821AB2F5004F009203DD6B
:10152000A2F58032009205E012F5004FBCBF02F533
:101530008032009240F28C13C2F20003009A1968C4
:10154000CCF800008818186001B070472DE9F04110
:10155000D1F8008000234FF0030C4FF0010E00245F
:101560000FE000BFC268AA43C260CA79C5689A404A
:101570002A43C2600134102C03F1020308BFBDE806
:10158000F08128FA04F5ED07F4D006680CFA03F5AB
:10159000AE4306600E79076806FA03F2013E3A434D
:1015A000012E0260DED88268EE43324082604A79C2
:1015B0008E7987689A403A43826042680EFA04F74F
:1015C000BA43426006FA04F2466892B2324342607D
:1015D000C8E700001C2303EA810C6FF0030303EA51
:1015E000510108440F23016A03FA0CF39943016285
:1015F000016A02FA0CF2114301627047418370479D
:1016000001837047FEE70000FEE70000704700001E
:1016100010B5C17800294EF20011CEF200011CD0A5
:101620004EF60C52CEF200021268072323EA122271
:101630000F23C2F1040C23FA02FE427884785FFA89
:101640008CF390F800C09A4004EA0E031A4312018A
:1016500001EB0C0383F8002300E0803100780123C4
:1016600000F01F0203FA02F2C0F3421041F82020FA
:1016700010BD000070B5B0F57A7F4FF61845A8BFD1
:101680004FF47A70CFF6FF7510F57A7FC8BF054624
:1016900095B140F20044C4F2020404F500604FF436
:1016A00080612EB2FFF7AAFF20464FF40041012EC1
:1016B0000DDBFFF7A3FF0DE040F20040C4F2020093
:1016C00000F500604FF48061FFF79AFF02E0FFF73A
:1016D00097FF6D4241F62C00C4F2000001682AB267
:1016E0000131514344F6D352C1F26202A1FB02120E
:1016F00042F38F11816070BD41F62801C4F20001F0
:101700000A88013250434BF60052C0F20152B2FB3C
:10171000F0F04FF6FF720138904238BF02464A603F
:101720007047000070470000002943F63001C4F202
:1017300002010A680CBF22EA0000104308607047EB
:10174000002943F64001C4F202010A680CBF22EAF4
:101750000000104308607047002943F64401C4F2BA
:1017600002010A680CBF22EA0000104308607047BB
:1017700010B543F60404C4F20204626802F00C03DC
:1017800042F20042082BC0F2F40206D0042B20D112
:1017900041F20022C0F27A021BE0D4F800C02368B4
:1017A00003F03F0E5FEA4C2341F20023C0F27A03BC
:1017B00058BF13462268B3FBFEFCC2F388122368AD
:1017C00002FB0CFCC3F30143022202EB4302BCFB0D
:1017D000F2F20260626846F2F423C2F30312C0F62A
:1017E00000039A5C0168D14041606268C2F38222C2
:1017F0009A5C21FA02F282606268C2F342329A5C19
:10180000D140C16010BD00007047000082B043F6B7
:1018100008000021C4F202000191009150F8081C58
:1018200041F4803140F8081C50F8081C01F40031E4
:101830000091019901310191009919B90199B1F50E
:10184000A04FF1D150F8081C890354BF0021012199
:1018500000910099012936D1816B41F0805181635B
:1018600047F20001C4F200010A6842F440420A60F3
:1018700001680160016841F400410160016841F4C0
:10188000A051016045F20841C0F2407140F8041CCB
:1018900050F8081C41F0807140F8081C50F8081CF2
:1018A0008901FBD540F20571C0F8F813016821F0F9
:1018B00003010160016841F002010160016801F06B
:1018C0000C010829FAD102B070470000B0B5013808
:1018D0000024B4EB106F18BFB0BD4EF21005CEF26D
:1018E0000005686000F056F90720AC602860B0BDC4
:1018F00040F65852C2F2000240F65C501368C2F241
:10190000000001210160581C1060704710B54EF6B0
:101910008854CEF2000420684FF6FF7340F4700044
:10192000206043F60000C4F202000168CFF6F663BF
:1019300041F0010101600021816002681A400260EB
:1019400043F21002C2F200424260026822F4802296
:101950000260C160FFF75AFF4FF0006044F8800C4E
:1019600010BD00000288002942F0010308BF22F0E8
:101970000103038070470000B0B5B0F808C0B0F8AC
:1019800018E0058C2CF0070421434FF6FC4404EAD0
:101990000E0425F0220542EA031204F201142A4340
:1019A000018104830284B0BD10B5028C22F00102D3
:1019B0000284048CB0F804E0038B0A8823F07303DC
:1019C00043EA020C24F0020240F2004440F4806337
:1019D000C4F20104A3428B894C8842EA030242EA22
:1019E00004020FD1CB8922F00C0223F004038C886F
:1019F0001A4322430C8A2EF4407E4B8A44EA0E049A
:101A000044EA030EA0F804E0A0F818C08968416316
:101A1000028410BD028B22F008021143018370473B
:101A200010B540F6FF32B0F800E0C4F2000240F218
:101A3000004C9042C4F2010C0FDCB0F1804F19D081
:101A400040F20042C4F20002904213D040F600027D
:101A5000C4F2000290420DD011E040F60042C4F200
:101A60000002904206D0604504D00022C4F2010278
:101A7000904204D14A882EF0700342EA030E41F2EC
:101A8000004340F48062C4F200039A4204D00C89FF
:101A90002EF4407344EA030EA0F800E04B68624560
:101AA000C3620B88038504BF897A01860121818284
:101AB00010BD00008289002942F4005308BF22F4BF
:101AC0000053838170470000002A828A0CBF22EAFB
:101AD000010111438182704770B584B00446008AC9
:101AE0000D46C98820F4405008432082A0894EF654
:101AF000F3110840A9882A896B89084310431843C9
:101B0000A081A08AA98920F4407008436E46A08273
:101B10003046FFF72DFE41F2004144F48060C4F2EC
:101B20000101884214BF06F1080006F10C000068AC
:101B30001922B4F90C1050432A680223002948BF27
:101B4000012302FA03F1B0FBF1F048F21F51C5F294
:101B5000EB11A0FB01235A096FF0630302FB0300A2
:101B6000B4F90C300426002B48BF032600FA06F017
:101B700000F13200A0FB01014FF00F0048BF072029
:101B800000EA511040EA0210208104B070BD00004C
:101B9000FEE700004EF62350CEF20000F021017067
:101BA00070470000000000002DE9F04F81B02DEDDE
:101BB000088B84B040F200274FF691584BF2DF09B2
:101BC0004FF6FE74C2F200074FF6D41B4FF6744A6C
:101BD00045F2806E9FED789B9FED79AB9FED7ABBD0
:101BE000CFF6FF78C9F60819C7F6FF744FF0000C5E
:101BF00007F5E860CFF6FF7BCFF6FF7AC9F62C5EDB
:101C0000009000BFD7F8D01A0131B1F51C7F46D93A
:101C1000009AE32102EB880652F80B30D6F88C5379
:101C200003EA040005F00045DB07284452F8043FAE
:101C300089EA500508BF450885EA03000139C6F85E
:101C40008C03E7D107F593614FF4C67251F8040F86
:101C50004B6800F0004003EA0406DB07304451F80B
:101C60000A3089EA500608BF460886EA0300013AAE
:101C70000860EBD1D7F8CC0AD7F8101100F000407B
:101C800001EA0402C9071044D7F8401789EA500254
:101C900008BF420882EA01000121C7F8CC0A07EB1D
:101CA0008100D0F80C01C7F8D01A80EAD0200EEAE3
:101CB000C01148400021CEF6C67101EAC03148404B
:101CC00080EA904002A941F82C00BCF1000F0CF111
:101CD000010C97D0DDE902014009019103F0A6FD56
:101CE00053EC192B03F02EFE064601980D46800991
:101CF00003F09CFD02460B463046294603F000FBEC
:101D000053EC1A2B03F01EFE53EC1B2B41EC180B6B
:101D100004F00EF9002844D0D7F8D00A01380009A1
:101D2000262817D845F2806E012100220020C9F62E
:101D30002C5E012607EB8103D3F80C31002B0EBF7C
:101D4000013130463246B1F51C7F08D81306F1D078
:101D500005E000BF45F2806E0020C9F62C5E00064B
:101D60004FF0000C7FF44EAF48F6651341F271510D
:101D700007F588704246C6F60743C7F8101100BF42
:101D800081EA917101FB0321013201F51C7140F8D8
:101D9000041FF5D34FF41C70C7F8D00A4FF0000CA5
:101DA00030E7B0EE480AF0EE680A04B0BDEC088BEC
:101DB00001B0BDE8F08F00BF0000000000009041BE
:101DC000000000000000A03C000000000000000037
:101DD000F0B581B02DED088B40F6D840C2F200007E
:101DE0000025056040F2E810C2F20000C0E900558D
:101DF000C0E90255C0E9045540F2D01040F2002479
:101E0000C2F2000040F6905640F68857C2F2000435
:101E1000C0E90055C2F20006C2F20007204640F6B3
:101E2000D821C6E90055C7E90055FEF7FAFA40F691
:101E30005050C2F20000C0E9005540F6E040C2F246
:101E40000000C0E9005540F6F040C2F20000C0E9D1
:101E5000005540F20800C2F2000090ED320B90ED08
:101E6000341B86ED000B87ED001B90ED440B90EDCD
:101E7000461B90ED042B90ED063B883090EC104B08
:101E800004F1100084EC040B80EC104B07204BF2A3
:101E9000827145F2E55243F6B53304F5807C84ED5A
:101EA000142B84ED163BA4F8D45AC4F23141C1F28C
:101EB0009A52C1F612738CE80F00BDEC088B01B08A
:101EC000F0BD0000000000002DE9F04F81B040F2AD
:101ED000002BC2F2000BDBF80001052800F0958012
:101EE000042840F0ED80DBF8040141F2BD69C0F246
:101EF0009C69A0FB0912811A02EB510140F6E347ED
:101F0000090CCFF6FE7701FB070040F6143A44F2C5
:101F1000A71801FB0AF300FB08F2DE4300FB086090
:101F200001FB1A269A4238BF20F00046304603F0E3
:101F30007DFC9FED830B54EC105B2A46234603F097
:101F400001FDA6FB092341EC100BF01A03EB500036
:101F5000000C00FB076100FB0AF301FB08F2DE4303
:101F600001FB086100FB1A268BED180B9A4238BF63
:101F700021F00046304603F059FC2A46234603F080
:101F8000E1FCA6FB092341EC100BF01A03EB500017
:101F9000000C00FB076100FB0AF301FB08F2DE43C3
:101FA00001FB086100FB1A268BED1A0B9A4238BF21
:101FB00021F00046304603F039FC2A46234603F060
:101FC000C1FCA6FB092341EC100BF01A03EB5000F7
:101FD000000C00FB076100FB0AF301FB08F2DE4383
:101FE00000FB1A208BED1C0B01FB08619A4238BFE5
:101FF00021F00040CBF8040103F018FC2A462346E8
:1020000003F0A0FC41EC100B8FE0DBE942014DF244
:10201000876840F6CD59C0F21208C0F2010900FBF2
:10202000098681EA413080EA504080EA4017B819B9
:1020300003F0FCFB9FED400B54EC105B2A4623465B
:1020400003F080FC41EC100B87EA473006FB098661
:1020500080EA504080EA4017B8198BED180B03F066
:10206000E5FB2A46234603F06DFC41EC100B87EAA2
:10207000473006FB098680EA504080EA4017B819CD
:102080008BED1A0B03F0D2FB2A46234603F05AFCD1
:1020900041EC100B87EA473106FB098081EA514188
:1020A00081EA41118BED1C0BCBE94201084403F09E
:1020B000BDFB2A46234603F045FC41EC100B34E0FF
:1020C0009BF8D50A18BB0BF58874204640F6C4115E
:1020D000FEF7A7F94FF6915148F6651241F271509B
:1020E000CFF6FF71C6F60742CBF8100180EA907078
:1020F00000FB0210013100F51C7044F8040FF5D309
:102100004FF41C70CBF8D00A01208BF8D50AFFF7EA
:102110004BFD8BED180BFFF747FD8BED1A0BFFF70F
:1021200043FD8BED1C0BFFF73FFD8BED1E0B01B04C
:10213000BDE8F08F00BF00BFFFFFFFFFFFFFEF3DD7
:10214000000020000000003E2DE9F04F81B02DED91
:10215000108BC2B040F2080A40F20029C2F2000A15
:10216000C2F200099AED3E0B99ED001B9AED0C8B23
:1021700051EC100B53EC112B03F0E4FB804640F6BE
:10218000E040C2F2000090ED000B8B4651EC100BCA
:1021900053EC182BCDE9180103F0CAFE40F6F044C9
:1021A00040F2E8150028C2F20004C2F2000500F077
:1021B000988094ED000B404653EC102B594603F0E9
:1021C000CDFD9AED000B04460D469AED028B9AED7B
:1021D000089B9AED0AAB51EC100B22462B46129449
:1021E000119503F0AFFB99ED140B99ED16BB53EC71
:1021F000102BCDE9132303F0B1FD53EC192B03F0A1
:10220000A1FB064610900F460F9153EC1A2B204667
:10221000294603F097FB53EC1B2BCDE9162303F063
:102220006FF802460B463046394603F069F89AEDDE
:10223000200B9AED1E9BD9465AEC10BB5A465346CA
:1022400004460D4603F097FE57EC196B002804BFB7
:10225000AA46A346204640F6F044294640F2E81537
:1022600032463B46C2F20004C2F2000503F06EFEA5
:1022700000281CBFBA46B3464AEC10BB40F2080A1D
:10228000C2F2000A9AED1A1BDDE90F10CB4653EC9F
:10229000112B40F2002985ED020BC2F2000903F078
:1022A00051FB02460B46DDE9130103F029F841EC2E
:1022B000100BDDE9111053EC182B89ED140B03F012
:1022C00041FB9AED1C0B53EC102B03F03BFB024639
:1022D0000B46DDE9160103F013F841EC100B89ED14
:1022E000160B9AED0E0BDDE9180153EC102B03F0E1
:1022F0001FFE002800F0F78499F8D40A99ED049B9A
:1023000099ED08ABCDE903B8C0B9FFF7DDFD0120B9
:1023100089F8D40A46F20830C0F60000841E09F19C
:102320007806102534F9020F03F069FA41EC100B1E
:10233000013D86ED020B06F10806F3D19FED1E1B51
:1023400099ED040B55EC114B99ED068B99ED08BBFB
:1023500099ED0ACB53EC102B20462946CDE90123F9
:1023600003F0FCFC41EC100BCDE90E1053EC182BE4
:10237000204629468DED3A0B0D920A9303F0EEFCB0
:10238000CDE9071041EC100B3AA89FED0D8BA0F1A1
:102390000807002654EC1C5B5AEC1BBB8DED3C0B74
:1023A0008DED3EBB8DED40CBCDE91054CDE90BBAA0
:1023B00012E000BF00BF00BF00000000000000806E
:1023C0000000000000000000D7A3703D0AD7EF3FD7
:1023D000D0B2E3399514F03F09EB060090ED260BDF
:1023E000803090EC06BB53EC102B2846214603F0BE
:1023F000A9FA8046894653EC1D2B5846514603F0F6
:10240000A1FADDE90E3282468B4651EC1B0B03F03C
:1024100099FA04460D460D980A9953EC1C2B03F0CB
:1024200091FA02460B462046294603F097FC0246E5
:102430000B465046DDF830A05946DDF82CB002F0CE
:102440005FFF02460B464046DDE91054494640F224
:102450000029C2F2000902F053FF97ED020B024679
:102460000B4651EC100B083703F06CFA02460B4692
:1024700051EC180B02F044FF41EC180B2036802E73
:10248000AAD11FED2F0B53EC102B02F039FF0F9F39
:10249000DDE90D48CDE9051009F1800000211AAAF7
:1024A000CDE9182009EBC10090ED200B099190EDCA
:1024B000288B90ED30BB90ED38CB51EC100B3A46A9
:1024C000434603F03FFA0D460A99064653EC182B93
:1024D000204603F037FA02460B463046294603F001
:1024E0003DFC04460D4653EC1B2B5846514603F069
:1024F00029FA02460B462046294602F001FF109EAB
:102500000D461199044653EC1C2B304603F01AFA81
:1025100002460B462046294602F0F2FEDDE905326E
:1025200002F0AAFF3A464346544682465D468B4631
:1025300041EC180B03F006FADDE90732CDE916107D
:102540005046594603F0FEF9CDE9131028462146BE
:1025500052465B4603F0F6F90F4611991290304649
:1025600052465B4603F0EEF982468B46002600BFDA
:102570001998304490ED00BB09EB060090ED220B5A
:1025800090ED20CB90ED24DB90ED26EBDDE91310F0
:1025900053EC102B03F0D6F980468946DDE916107E
:1025A00053EC1C2B03F0CEF902460B46404649463D
:1025B00040F20029C2F2000902F0A2FE044612987D
:1025C0000D4653EC1D2B394603F0BCF902460B4671
:1025D0002046294602F094FE04460D4653EC1E2B7D
:1025E0005046594603F0AEF902460B4620462946AE
:1025F00002F086FE02460B4651EC1B0B03F0AEFBCD
:1026000041EC100B189830442036802E80ED000BE2
:10261000AED109993AA800EBC10080ED008B199862
:10262000189A0131DDE90BBA0F9FDDE90D4808303A
:10263000042902F108027FF433AF1FED9B0B1AA8A7
:10264000083809F17806102755EC108B90ED020B35
:1026500000F1080451EC100B42462B4603F072F9CE
:1026600041EC100B013F86ED020B06F108062046F7
:10267000ECD140F6F04099ED1A0BC2F20000DDE912
:10268000073290ED008B99ED0CBB99ED10CB99EDD5
:1026900018DB51EC100BCDE9180103F053F9044697
:1026A0000D464E4658EC1D9BDDE901014A46434666
:1026B00003F048F922462B4603F050FB96ED1C0B25
:1026C00004460D4653EC102B58465146CDE91623CF
:1026D00003F038F902460B462046294603F03EFB3C
:1026E00096ED1E0B044635460E4653EC10BBDDE955
:1026F00010015A46139303F025F902460B46204673
:10270000314603F02BFB56EC184B02460B46204695
:10271000314602F0F5FD9DED3A0B82460F469DEDE8
:102720003CDB9DED3EEB9DED408B51EC100B52469A
:102730003B4603F007F902460B464846414602F085
:10274000DFFD41EC100B51EC1D0B52463B4685ED75
:10275000180B03F0F7F802460B46DDE9180102F00A
:10276000CFFD41EC100B53EC1E2B5046394685ED46
:102770001A0B03F0E7F802460B46DDE9160102F0FA
:10278000BFFD41EC100B53EC182B5046394685ED3C
:102790001C0B03F0D7F80B4613990246584602F07B
:1027A000AFFD41EC100BDDE903102246334685ED09
:1027B0001E0B03F0D3FACDE9121041EC1D0B40F2D1
:1027C0000800C2F2000090ED320B90ED341B40F691
:1027D000905440F6885B56EC107BC2F20004C2F2C3
:1027E000000B51EC110B3A46334684ED000B8BED98
:1027F000001B03F0A7F89FED2E0B53EC102B03F0FA
:10280000A1F841EC100B01F09FFB51EC100B9FED78
:102810002A0B53EC10AB5246199303F093F894ED46
:10282000000B8046894651EC100B02460B4603F024
:1028300089F89FED230B0C4652EC101B05463846D9
:102840000F46314616463A46334603F086FB8DED79
:1028500014BBB0EE4ABAB0EE49AAF0EE6ABAF0EE96
:1028600069AACDE91076B8BB384631462A462346D8
:1028700003F074FA41EC100B01F07AFDB0EE408ADF
:102880009BED001BF0EE608A9FED0F0B51EC110BDE
:1028900053EC102B03F056F802460B4651EC180B84
:1028A00003F050F841EC100B01F01EFA38E000BFC5
:1028B0007B14AE47E17A74BF00000000000000C046
:1028C000000000000000F03F7B14AE47E17A743F47
:1028D000000000000000F0BF1FED030B284653EC82
:1028E000102B214602F00CFD41EC100B01F040FDD5
:1028F000B0EE408A9BED001BF0EE608A1FED0E0BE0
:1029000051EC110B53EC102B03F01CF802460B4654
:1029100051EC180B03F016F841EC100B01F048FADB
:1029200040F69057199E53EC102B40464946C2F290
:10293000000703F007F880460F9040F20020C2F233
:10294000000090ED1C1B90ED1A0B55EC114B8946C5
:102950000E9190ED1E8B834651EC100B22462B46B8
:1029600002F0F0FFCDE90C1053EC182B204629465D
:1029700002F0C6FC97ED000B1890199151EC100B6A
:102980005246334602F0DEFF40F68852C2F20002A1
:1029900092ED000B53EC102B02F0D4FF1FED360B21
:1029A00053EC102B02F0CEFF41EC100B01F0CCFAEF
:1029B0009BED1C1B51EC100B53EC112B5C46CDE92D
:1029C000162302F0BFFF9BED1E0B064654EC105B76
:1029D0000F46404649462A462346DA4602F0B2FFF1
:1029E00002460B463046394603F0B8F92A462346DC
:1029F00003F0B4F902460B462846214602F0A2FF36
:102A00009BED180B804656EC107B894628462146E4
:102A10003A4633460A970B9602F094FFDDF834B03D
:102A2000DDF830A05A46534603F098F902460B46AB
:102A3000DDE9180102F086FF02460B464046494692
:102A400002F05EFC024640F20020C2F2000090ED6F
:102A50001A0B0B4651EC100BCDE9080102F072FF86
:102A6000DDF85890DDF85C80CDE906104846414617
:102A70003A46334602F066FF02460B462846214698
:102A800002F060FF06460F46584651464A46434606
:102A900002F058FF02460B463046394603F05EF915
:102AA00006460F46284621462A46234602F04AFF9C
:102AB00002460B463046394603F050F902460B46B3
:102AC000DDE9180102F03EFF02460B46DDE9061083
:102AD00002F0D2FC83468A46284621465A4653468F
:102AE000CDF834B0CDF830A002F02CFF089F099E3D
:102AF0003A46334602F0C0FCCDE91810384631465C
:102B00002A46234602F0B8FCCDE906104846414665
:102B10002A46234602F0B0FCDDF82880DDF82C9030
:102B200004460D46404649463A46334602F0A4FC68
:102B300022462B4603F012F9109E119F32463B4667
:102B400003F00CF95A46534602F0FCFE02460B46CF
:102B5000DDE9061002F0D4FB024640F20020C2F28A
:102B6000000090ED0C0B0B4690ED0EFB90ED10EB82
:102B700090ED128B51EC100B02F0E4FE04460D4672
:102B8000DDE90E1032463B46B246BB4602F0B8FBCA
:102B900042464B4603F0E2F8199E189F32463B46E8
:102BA00003F0DCF8DDE9162302F066FC02460B4672
:102BB000DDE9121002F0C6FE02460B462046294609
:102BC00002F09EFBDDE90C3204460D4651EC1F0B72
:102BD00002F0B8FE22462B4602F092FB04460D4658
:102BE0005046594632463B4603F0B8F802460B467B
:102BF00051EC1E0B02F0A6FE22462B4602F080FB93
:102C000004460D4651EC180B32463B4602F09AFE44
:102C100022462B4602F074FB40F2080AC2F2000A78
:102C20009AED380B9AED36EB54EC105B9AED3AFBCB
:102C30009AED3C9B2A46234606460F4641EC180B6C
:102C400003F099F959EC1E8B00283046394642466C
:102C50004B4604BF3C46354603F078F956EC197BE9
:102C600000281CBF4C464546284621463A46334676
:102C700044EC1E5B03F07FF959EC1F8B00282846BB
:102C8000214642464B4604BF26462F4603F05EF9D6
:102C9000002818BF4E4618BF474646EC107B40F64A
:102CA000F04440F2E815C2F20004C2F2000540F21E
:102CB000002994ED001B85ED000B9DED140BDDE963
:102CC00003B8C2F2000989ED041B89ED06AB89ED5A
:102CD00008EB89ED0ABB89ED0CDB89ED0E0B89ED64
:102CE000108B89ED12CB40F6E040C2F2000090ED6F
:102CF000000B9AED101B464657EC108B53EC112B32
:102D00004046394603F014F900284CD094ED000BEE
:102D1000304653EC102B594603F020F89AED120B75
:102D20000AF1500292EC068B53EC102B02F00AFED3
:102D300099ED020B064619970F4651EC180B53EC10
:102D4000102B02F0FFFD02460B463046394602F0DA
:102D5000D7FA56EC1A7B3A46334683460D4603F0C3
:102D60000AF954EC19AB002804BF2E465F465846BA
:102D7000294640F2E81552462346C2F2000503F008
:102D8000E5F8002818BF264618BF574640F6F0441D
:102D900040F2080A46EC107B199FC2F20004C2F20E
:102DA000000A85ED040B4046394602F0F9FC811E0D
:102DB00018BF01210901012808BF0821681890EDFA
:102DC000000B40F2D01040F650519AED421B99EDA5
:102DD000002BC2F20000C2F2000191ED008B9AEDCF
:102DE000409B80ED000B51EC110B53EC122B02F0C9
:102DF000A9FD02460B4651EC180B02F0AFFF53EC55
:102E0000192B02F039FB41EC100B94ED001B89ECFF
:102E1000040B42B0BDEC108B01B0BDE8F08F000098
:102E200070B5044641F2000510200121C4F20005EE
:102E30000126FEF785FC42F2CF002885601EE8627D
:102E400000206862AE8228822E8000BF288A002877
:102E5000FCD00020288010200021FEF771FC70BDFE
:102E60002DE9F04F9FB0402001214FF04008FEF7C0
:102E700067FC022001214FF0020BFEF755FC0820F1
:102E800001214FF00809FEF74FFC0024C4F20204B0
:102E90004FF4804040F2023704F580660DF1740A69
:102EA0001D90C0F20017304651461E97FEF74EFBAC
:102EB00030460E210922FEF78DFB4FF400401D9095
:102EC00040F201301E9030465146FEF73FFB4FF472
:102ED00046401D9004F540605146FEF737FB40F236
:102EE000E73041F600061B902920C4F200061A9034
:102EF00000251AA93046ADF87050FEF791FD60200C
:102F0000C0F20100159015A930461795ADF8605034
:102F1000FEF74AFD30460821FEF77CFD30460121D0
:102F2000FEF720FD01200121FEF716FC10200121F3
:102F3000FEF7FAFB4FF42060CDE91D0704F580573A
:102F400038465146FEF702FB384609210122FEF7BA
:102F500041FB38460B210122FEF73CFBA4F58037EC
:102F60003846032100220023FEF706FD2420CFF679
:102F7000FF70255038460121FEF7F4FC01200121A5
:102F8000FEF7D2FB4FF4003001214FF40037FEF77B
:102F9000D7FB4FF400100121FEF7C6FB20460221AB
:102FA0000722FEF717FB204603210722FEF712FB3C
:102FB00004201D9040F20220C0F200101E90204616
:102FC0005146FEF7C3FA20465146CDF874908DF86D
:102FD00078B0FEF7BBFA4FF4E130CDE911054FF4BC
:102FE000402006F53054139011A92046ADF85050FA
:102FF000FEF772FD20460121FEF75CFD2046802190
:103000000122FEF761FD204640210122FEF75CFD12
:1030100044F2044A40F66F504FF00069C4F2000ACF
:10302000C2F2000046F28804CDF80890CDF80CA05A
:10303000CDE904080F204FF48068C4F20204CDE902
:103040000605CDE90885CDE90A55CDE90C7504F1F1
:10305000180602AF4FF0010B30463946CDE90EB5E8
:103060001095FEF717FA30460121FEF7EFF940F60A
:103070000850C2F20000CDE9029ACDE904054320D0
:1030800006A981E821014FF400300CA9CDE90955CA
:103090000B9581E8210820463946CDE90F55FEF70A
:1030A000F9F920460121FEF7D1F91020C0F20010F5
:1030B000019001A8FEF7ACFA204610210122FEF78C
:1030C000CFF91FB0BDE8F08F40F20000C2F200005F
:1030D000006848F21F51C5F2EB11A0FB010140F658
:1030E00000448809C4F20204FEF7F0FB4FF47A7042
:1030F000FFF796FEFFF7B4FE42F21070FEF7FCFAFF
:1031000000200026FEF7B6FAFEF762FE40F6045BEA
:1031100040F65C5540F6505740F6005940F208081A
:103120009FED878B9FED889B9FED89AB9FED8ABBC1
:1031300040F2D01AC2F2000BC2F20005C2F2000740
:10314000C2F20009C2F20008C2F2000A53E040F2E3
:10315000C810C2F2000090ED000B40F2E010C2F285
:103160000000068087ED000BFEF7CAF902F047FB6E
:1031700053EC182B02F080F953EC192B02F0E2FB10
:1031800041EC100B2C4640F6F045C2F2000585EDEF
:10319000000B00F0E5F89AED000B53EC1A2B51EC04
:1031A000100B02F0CFFB53EC1B2B02F065F941EC46
:1031B000100B8AED000B02F0F3FA40F68051C2F2D8
:1031C0000001088000B2FEF755FA97ED000B51ECB4
:1031D000100B02F0E5FA95ED000B054651EC100BD3
:1031E00002F0DEFA01462846254600F0D5F840F602
:1031F0000044C4F20204DBF8000000287CD0204622
:103200004FF40041FEF7FCF920464FF48041FEF7F1
:10321000F5F9D9F8000001284ED140F2C810C2F2E9
:10322000000090ED000B40F6E840C2F2000000689C
:1032300087ED000B02F0E3FA41EC100B40F2B01006
:10324000C2F2000090ED001B40F6E040C2F2000028
:1032500080ED000B40F2A010C2F2000090ED000BD8
:1032600040F2A810C2F2000088ED0A1B90ED001B8E
:1032700040F2D810C2F2000088EC040B90ED000B75
:1032800040F2B810C2F2000090ED001B40F2901026
:10329000C2F2000088ED320B90ED000B40F2981066
:1032A000C2F2000088ED341B90ED001B88ED120B7C
:1032B00088ED141BC9F80060286800289BD040F6F0
:1032C0007E50C2F2000000782E6001287FF44CAFDF
:1032D00040F2E012C2F20002108840F28F13411C4B
:1032E000984211803FF433AFC7287FF43DAF384692
:1032F000C7E9006638E700BF20464FF48041FEF77B
:103300007FF920464FF40041FEF778F92420C4F2FB
:1033100001000660286860B140F6F040C2F200008B
:10332000C0E90066002000212E60C7E9006600F0B9
:1033300033F80020FEF79EF95DE700BF00BF00BF35
:10334000000000000088D3400000000000807640AC
:103350000000000000408F400000000000002840F6
:1033600010B540F2C014C2F200042078411C217054
:1033700038B146F20430C0F60000006804A10160D4
:1033800010BDFEF7E1FE20780138207010BD00BFAF
:103390004F76657272756E0010B5024640F6605049
:1033A0000B46C2F2000014A1FCF770FF40F6DC41AE
:1033B000C2F20001087040F66F51C2B2C2F20001C1
:1033C00042F653430B8032B1881C40F66051C2F282
:1033D0000001FCF7E1FF46F2A004C4F20204002160
:1033E000C2F220012046FDF7FDFF0F20606020465D
:1033F0000121FEF72BF810BD25642C25640D0A0071
:1034000023F07F4720F07F4C80EA030000F000406B
:10341000ACEB070303F57C5303F1FF032DE980496F
:1034200009B44FEA144324EA03484FEA154B25EA4E
:103430000B4E0FF2042606EB13273E7803FB0667BC
:10344000C7F5000707FB06F64FEAD64606F1020667
:103450004FEA543707FB066CCCF1005C4FEA1C477F
:103460002CEA074C0CFB06F507FB06F404EB1546AB
:103470004FEA961649085FEA320234BF00204FF047
:1034800000404FEAD13706FB07FC4FEA1C4C0CFB0F
:103490000BF7D21B03FB0CF761EB07010CFB0EF7DC
:1034A000B0EB074072EB17420CFB08F734BFA2EBFE
:1034B0000742B2EB074261EB17414FEA0C444FEA77
:1034C000910706FB07FC4FEA1C4C0CFB0BF7B0EB1B
:1034D000C74072EB573203FB0CF734BFA2EBC74275
:1034E000B2EBC74261EB57310CFB0EF7B0EBC700F4
:1034F00072EB57720CFB08F734BFA2EBC702B2EBBA
:10350000C70261EB57714FEA816141EA92114FEABC
:10351000826242EA90124FEA806004EBCC04039F7F
:103520004FEAD13706FB07FC4FEA1C4C0CFB0BF7AC
:10353000D21B03FB0CF761EB07010CFB0EF7B0EBA2
:10354000074072EB17420CFB08F734BFA2EB0742AF
:10355000B2EB074261EB17414FEA8C5504EB9C2418
:103560004FEA910706FB07FC4FEA1C4C0CFB0BF7DC
:10357000B0EBC74072EB573203FB0CF734BFA2EB42
:10358000C742B2EBC74261EB57310CFB0EF7B0EB11
:10359000C70072EB57720CFB08F734BFA2EBC702EF
:1035A000B2EBC70261EB57714FEA816141EA9211B8
:1035B0004FEA826242EA90124FEA806015EB4C2596
:1035C00044F100044FEAD13706FB07FC4FEA1C4CDC
:1035D0000CFB0BF7D21B03FB0CF761EB07010CFB99
:1035E0000EF7B0EB074072EB17420CFB08F734BF45
:1035F000A2EB0742B2EB074261EB17414FEA813180
:1036000041EA92414FEA823242EA90424FEA8030E8
:103610004FEA0C7615EB1C1544F1000448EA03430D
:103620004EEA0B484FF0000EB2EB080C71EB0307AB
:1036300024BF624639464EEB0E0E4FF0000B0018C9
:10364000524149414BEB0B0BB2EB080C71EB0307FA
:103650007BF1000B24BF624639464EEB0E0E4FF055
:10366000000B0018524149414BEB0B0BB2EB080C1D
:1036700071EB03077BF1000B24BF624639464EEB2A
:103680000E0E51EA020718BF46F0010616EB0E7641
:1036900055F1000254F1000103D5BDE88901BDE8F0
:1036A0000088BDE88901BDE80048B619524141EBE8
:1036B0000101A3F10103704780807F7E7D7C7B7ACE
:1036C0007978777676757473727171706F6E6E6DCE
:1036D0006C6C6B6A6A696868676666656464636374
:1036E00062616160605F5F5E5E5D5D5C5C5B5B5AFA
:1036F0005A59595858575756565555555454535367
:1037000052525251515050504F4F4F4E4E4D4D4DC1
:103710004C4C4C4B4B4B4A4A4A494949484848470C
:10372000474747464646454545444444444343434A
:10373000434242424241414110B546EA06464FEA01
:10374000164646EA42564FEAD22242EA41524FEA30
:10375000D121A3F57053A3F1010300F02FF820F05D
:10376000004000F0004700F1020CBCF5006F01EBD7
:103770000050114640EA070000D210BDBAF1000F18
:103780000AD01CB503B44FF004004FF004014FF011
:1037900000000FBCBDE810404FF00001BBF1010F6D
:1037A000B9BF04484FF0FF310348002140EA070049
:1037B00010BD00BFFFFFEF7F0000F07F9C46002B95
:1037C00030D477002BD04FEA37071CB503B44FF045
:1037D00010004FF01001BAF1000F06D0BCF1000F3D
:1037E000DCBF40F0080040F008014FF000000FBCC3
:1037F000BDE810400BF1010BBBF1010F08BF5FEA00
:10380000170722BF12F1010211F101014FF000412F
:1038100043F1000300F0004043EA00007047F9D391
:103820005708D0E746EA06464FEA164613F1400F1E
:103830001FDD13F1200FDFBF16430A46002120339E
:103840005B42BED0C3F1200746EA06464FEA164661
:1038500002FA07F746EA070622FA03F2C3F1200745
:1038600001FA07F742EA070221FA03F14FF00003D9
:10387000A7E746EA020646EA06464FEA164646EA41
:103880000106BCBF46EA0646360C4FF000034FF077
:1038900000024FF0000194E72DE9804C70B49A4685
:1038A000934691E8380007C831EA400C48BF34EA33
:1038B000430C03D5FFF7A4FDFFF780FFF0BCBDE884
:1038C000008C2DE9804C70B49A46934691E83800FC
:1038D00007C831EA400C48BF34EA430C03D5FFF770
:1038E0008FFDFFF729FFF0BCBDE8008C2DE9804C6F
:1038F00070B49A46934691E8380007C810F0804F9C
:1039000008BF13F0804F03D100F01AF8FFF756FFFD
:10391000F0BCBDE8008C2DE9804C70B49A4693460B
:1039200091E8380007C810F0804F08BF13F0804FAF
:1039300003D100F005F8FFF7FFFEF0BCBDE8008CF6
:1039400020F07F4723F07F4C80EA030000F0004026
:1039500007EB0C03A3F57C53A3F1FE0392F0000FD9
:1039600000F0B38095F0000F00F077802DE9014959
:103970004FEA114021EA00484FEA144624EA06477C
:1039800000FB06FC08FB06F607FB08F818EB0648E8
:103990004CEB164C00FB07F718EB07484CEB1740B5
:1039A0004FEA124B22EA0B4E4FEA154625EA06472C
:1039B0000BFB06FC0EFB06F607FB0EFE1EEB064E8F
:1039C0004CEB164C0BFB07F71EEB074E4CEB174B63
:1039D00018EB0B0840F1000018EB0E0B58EB000839
:1039E00040F100008F1A4FF000014FF000063CBF7D
:1039F000C943661B14BFB5EB040C00213CBFC9438F
:103A0000F61B4FEA174427EA04454FEA1C472CEA05
:103A1000074C04FB076205FB07F70CFB05F616EBEA
:103A2000074642EB174204FB0CFC16EB0C4642EB3C
:103A30001C421BEB060658EB020241414EEA8E0E79
:103A400046EA9E0601D5BDE80189B619524141EB0F
:103A50000101A3F10103BDE801894FEA144524EAFD
:103A600005464FEA114721EA074C05FB07F406FB20
:103A700007F70CFB06F111EB074144EB174405FB7C
:103A80000CFC11EB0C4144EB1C444FEA124722EAB8
:103A9000074C05FB07F206FB07F70CFB06F616EBD7
:103AA000074642EB174205FB0CFC16EB0C4642EBBB
:103AB0001C456A1854F1000148BF7047B6195241BD
:103AC00041EB0101A3F10103704795F0000F37D0DE
:103AD0004FEA114221EA02464FEA144724EA074C12
:103AE00002FB07F106FB07F70CFB06F414EB074497
:103AF00041EB174102FB0CFC14EB0C4441EB1C4165
:103B00004FEA154725EA074C02FB07F506FB07F7C6
:103B10000CFB06F616EB074645EB174502FB0CFCC3
:103B200016EB0C4645EB1C42121951F1000148BF3F
:103B30007047B619524141EB0101A3F101037047EF
:103B40004FEA144524EA05464FEA114721EA074C9B
:103B500005FB07F106FB07F70CFB06F212EB074229
:103B600041EB174105FB0CFC12EB0C4251EB1C41E5
:103B70004FF0000648BF7047921841EB0101A3F1D6
:103B80000103704703B401984100009850EAC12036
:103B900018BF04204A0D18BF40F0010040F2FF7228
:103BA000B2EB515F08BF40F00200012808BF0520BA
:103BB00002B070470000000030B52DED048B81B0DD
:103BC000B0EE408AF0EE608A6A4651EC180B01F0C4
:103BD000E7FA00989FED329B7E300090002821DCB0
:103BE00053EC192B51EC180B01F09EFD1AD000215B
:103BF00040F608004FF00000044651EC180B01F0AD
:103C00004DFB08EE100A40F6080004EA00014FF0F0
:103C10000000B5EEC08AF1EE10FA04BF0220FCF7F6
:103C20002FFC2DE00098FF2830DB002108464FF0E4
:103C3000000000F4400553EC192B51EC180B01F077
:103C40007FFF8CBF002401240220FCF719FC9FEDAC
:103C5000168A4DB1002C0CBF4FF400004FF48000C9
:103C6000A84218BF9FED118A042108464FF00000BA
:103C7000002C01BFB1EE480A01B0BDEC048B30BD91
:103C8000B0EE480A01B0BDEC048B30BD51EC180B0E
:103C900001F004FB01B000EE100ABDEC048B30BD56
:103CA00000000000000000000000807FFFFF7F7F19
:103CB00030B583B00446FCF7DEFB9FED090B0546EB
:103CC0008DED000B0123002221466846FCF778FCAD
:103CD0002846FCF7D5FB9DED000B03B030BD00007E
:103CE000000000000000000010B52F499FED2C1BC4
:103CF0002DED020B84B0059820F000408842D8BF1B
:103D00009DED040B2DDD2949884209D1049840B965
:103D10004FF00100FCF7B4FB00F05EFF06B010BDF1
:103D200005DB9DED040B00F04BFF06B010BD6846AF
:103D30009DED040B00F05CFB10F0030004BF9DED53
:103D4000021B9DED000B0CD001280ED09DED021B37
:103D50009DED000B022817D0012000F099FE06B05F
:103D600010BD00F061FD06B010BD9DED021B9DED84
:103D7000000B012000F08CFE51EC100B01F082FAD8
:103D800006B041EC100B10BD00F04EFD51EC100BD5
:103D900001F078FA06B041EC100B10BD00000000F5
:103DA0000000000000000000FB21E93F0000F07F60
:103DB00010B52DED020B2DED068B079820F0004479
:103DC0005548844208DB9DED060BBDEC068B02B026
:103DD000BDE8104000F020BF5048844235DA9DED28
:103DE000060B51EC100B01F0CFF941EC100B00F079
:103DF0002FFFB0EE408AF0EE608A9FED49AB51ECA8
:103E0000180B53EC1A2B01F07BFA41EC100BB4F1B8
:103E1000725FBEBFBDEC068B02B010BD53EC102B21
:103E200051EC100B01F06CFA41EC190B53EC182B10
:103E300051EC180B01F086FD53EC192B01F01CFB23
:103E400053EC1A2B01F05CFA30E037489FED388BC9
:103E500084421CDA9DED060B51EC100B01F094F935
:103E600001F08AF941EC1A0B51EC180B53EC1A2BA8
:103E700001F002FB41EC190B53EC182B51EC1A0B1F
:103E800001F060FD53EC192B01F03AFA0EE02A48DC
:103E9000844211DA9DED060B51EC100B01F074F920
:103EA00001F06AF953EC182B01F04CFDBDEC068BC8
:103EB00002B041EC100B10BD2048784406A9006800
:103EC000400F51F820001E498C4203DB19D11D49D7
:103ED000884216D89DED060B51EC100B01F054F9F9
:103EE00053EC182B01F02EFD01F046F941EC190BB3
:103EF00053EC182B01F026FD53EC192B01F022FD99
:103F0000D4E70220FCF7BCFABDEC068B02B0BDE89A
:103F1000104000F071BE00000000F07F432ED63F3D
:103F2000000000000000F03F0000364000000000EC
:103F3000000000000000E03F422E8640F221000019
:103F4000CE3386407DF8B98F70B52DED020B2DED87
:103F50000A8B82B00D98C40F20F00045AE48854210
:103F600048D3AE48854219D30C99C5F313000843D2
:103F700009D09DED0C0B02B0BDEC0A8B02B0BDE880
:103F8000704000F01DBE002C14BF9FEDA50B9DEDF1
:103F90000C0B02B0BDEC0A8B02B070BD9FEDA20B02
:103FA00053EC102B9DED0C0B51EC100B01F0C8FDE8
:103FB0000AD20220FCF764FA02B0BDEC0A8B02B010
:103FC000BDE8704000F018BE9FED990B53EC102B2C
:103FD0009DED0C0B51EC100B01F078FC0AD2022085
:103FE000FCF74EFA02B0BDEC0A8B02B0BDE870409F
:103FF00000F01EBE90489FED92BBA8425CD2924852
:10400000854219D29148784400EBC40090ED000B32
:1040100053EC102B9DED0C0B51EC100B01F09EFEA0
:1040200041EC1A0B8A48784400EBC40090ED009BE9
:10403000C4F10100041B36E09FED870B53EC102BFD
:104040009DED0C0B51EC100B01F07CFC41EC100BC6
:104050008348784400EBC40090ED001B51EC100B3A
:1040600053EC112B01F04CF901F09AFB044601F0DE
:10407000C6FB41EC180B9FED7C0B53EC102B01F0B1
:1040800061FC9DED0C1B53EC112B01F08FFD41ECFD
:104090001A0B9FED770B51EC180B53EC102B01F022
:1040A00051FC41EC190B51EC1A0B53EC192B01F09C
:1040B00055FECDE90C011BE06F48854217D29FEDFC
:1040C000700B53EC102B9DED0C0B51EC100B01F011
:1040D00017F953EC1B2B01F033FD08D29DED0C0BAF
:1040E00053EC1B2B51EC100B01F00AF96EE000248D
:1040F0009DED0C0B53EC102B51EC100B01F022FC3E
:1041000041EC180B60480521B0EE480AF0EE680A51
:10411000784400F041FC53EC182B51EC100B01F0EB
:1041200011FC9DED0C1B53EC112B01F03FFD41ECFC
:10413000180B9FED570B5CB353EC182B51EC100B85
:1041400001F00CFE9DED0C0B41EC1C0B53EC182BFD
:1041500051EC100B01F0F6FB53EC1C2B01F08CF929
:1041600053EC192B01F022FD53EC1A2B01F0F6FD54
:1041700053EC1B2B01F01AFDCDE900016FF47F70A9
:10418000844226DB01EB045001909DED000B00E71B
:1041900053EC102B51EC180B01F0E0FD9DED0C0BD6
:1041A00041EC190B53EC182B51EC100B01F0CAFB2E
:1041B00053EC192B01F060F99DED0C1B53EC112B06
:1041C00001F0CCFD53EC1B2B01F0F0FC41EC100B8B
:1041D000DFE608464FF07A5101EB04519FED2E0BBC
:1041E000084453EC102B01909DED000B51EC100B8B
:1041F00001F0A8FB0D4645EC100B044651EC100BEA
:10420000FFF7C0FC042808BF00F012FD45EC104B7E
:10421000BFE6000000000000422E86400000F07F54
:104220000000000000000000EF39FAFE422E864038
:1042300051302DD5104987C0422ED63F00000000D6
:10424000000000000000F03FB2A2F03FBE200000DE
:10425000AE20000000000000FE822B654715F73FEE
:1042600062200000000000000000E0FE422EE63F59
:10427000763C7935EF39EA3D0000303E0000000021
:104280009C7500883CE4377ED41F000000000000CD
:10429000000000000000004000000000000070016D
:1042A00030B540F2FF742DED048BF0EE608A18EE0D
:1042B000901A85B0B0EE408A9FED2B9B05468DEDA0
:1042C000008B34EA115147D053EC192B51EC180BE9
:1042D00001F02AFA40D02A4651EC180B01F099FE61
:1042E00041EC180B18EE900A8DED008B34EA10505B
:1042F0001CD053EC192B51EC180B01F015FA2BD1F3
:104300000220FCF7BDF800F093FC10EE901A18EEB6
:10431000900A8DED020B8DED008B61F31E00039072
:104320009DED020B05B0BDEC048B30BD0220FCF707
:10433000A7F800F061FC10EE901A18EE900A8DEDCF
:10434000020B8DED008B61F31E0003909DED020BBF
:1043500005B0BDEC048B30BD05B0B0EE480AF0EE00
:10436000680ABDEC048B30BD0000000000000000B6
:1043700000B52DED048BB0EE409AF0EE609A83B05C
:1043800051EC190B01F01EFC41EC180B18EE100A51
:1043900018EE901A8DED008B002818BF01200843FD
:1043A00020F00040C0F17F6000F1E040C00F14D069
:1043B00019EE101A19EE900A8DED009B002918BF16
:1043C0000121084320F00040C0F17F6000F1E0408F
:1043D000C00F04BF0120FCF753F8B0EE480A03B049
:1043E000F0EE680ABDEC048B00BD00000000000088
:1043F0002DE9F14F04462DED020B2DED088B8AB00F
:104400009FEDE70B80ED020B139EE74826F0004579
:1044100085420ADC9DED120B002084ED000B0AB0F2
:10442000BDEC088B03B0BDE8F08FE0489FEDE0AB3A
:104430009FEDE1BBA84247DDE14F9FEDE39B9FED80
:10444000E48B9DED120B53EC1A2B51EC100B002E4C
:104450001CDD01F083FC41EC100BBD4208D053EC95
:104460001B2B51EC100B01F079FCC4E900010BE0AF
:1044700053EC192B51EC100B01F070FC53EC182B82
:1044800001F06CFCC4E900010120C8E700F038FF2E
:1044900041EC100BBD4208D053EC1B2B51EC100B20
:1044A00000F02EFFC4E900010BE053EC192B51EC96
:1044B000100B00F025FF53EC182B00F021FFC4E98E
:1044C00000014FF0FF30AAE7C348A84279DB9DED19
:1044D000120B51EC100B00F057FE41EC180B9FED46
:1044E000C00B53EC102B01F02DFA9FEDBF1B53ECCA
:1044F000112B00F005FF01F053F9074601F07FF999
:1045000041EC190B53EC1A2B01F01CFA53EC182B4D
:1045100001F04CFB41EC180B53EC1B2B51EC190B2D
:1045200001F010FADFF8C8A241EC100B4FEA155861
:104530000125FA4453EC102B51EC180B01F00EFC42
:10454000032DC4E900013DD0C1F30A5005EB45112C
:10455000A8EB00001139814234DA0AEB051BB0EEFA
:1045600048AA9BED000BF0EE68AA53EC102B51EC1F
:10457000190B01F0E7F941EC1B0B51EC1A0B53EC52
:104580001B2B01F0EBFB41EC180B51EC1A0B53EC1D
:10459000182B01F0E3FB53EC1B2B01F0DFFB9BED31
:1045A000020B41EC1A0B53EC102B51EC190B01F0E0
:1045B000C9F953EC1A2B01F0D1FB41EC100B6D1C27
:1045C000B8E70EE0002EA8BF3846BFF628AF94ED3E
:1045D000000B51EC100B00F055FEC4E900017842CD
:1045E0001DE7C6F3130040F4801EC6F30A50A0F284
:1045F000F530471100F01F05C5F12000DDF848B087
:1046000008900020069007900520EC467949002D7F
:1046100007EB0002794408BF51F8221009D051F885
:10462000223001EB8201AB404A68089922FA01F17D
:104630001943A1FB0E26A1FB0B131A449A4234BF67
:104640000123002303EB06080CEB8003D3E901A64A
:104650000E448E4234BF0121002192448A4411B19C
:10466000924502D903E0924501D2012100E00021E8
:10467000C3E901A641444CF82010011EA0F101003D
:10468000C4DC029800F10050850F0298DDE9036751
:104690008000DDF8148001F0B2F841EC1A0B3046CE
:1046A00001F0C4F89FED541B53EC112B01F04AF9B3
:1046B00041EC1B0B384601F0B9F89FED511B53EC50
:1046C000112B01F03FF941EC180B404601F0AEF818
:1046D0009FED4D1B53EC112B01F034F941EC190BFC
:1046E00051EC180B53EC192B00F00AFE53EC1B2B6A
:1046F00000F006FE53EC1A2B00F002FECDE9080193
:10470000002008909DED080B53EC1A2B51EC100B78
:1047100001F024FB53EC1B2B01F020FB53EC182B76
:1047200001F01CFB53EC192B01F040FA9FED381BF4
:1047300053EC112B01F006F99FED370B41EC180BF0
:1047400053EC102B9DED080B51EC100B01F0FAF817
:1047500053EC182B00F0D4FD9FED310B41EC180BFE
:1047600053EC102B9DED080B51EC100B01F0EAF807
:1047700053EC182B00F0C4FD41EC100B139810F013
:10478000004F06D06D4251EC100B00F07BFD41EC68
:10479000100B284684ED000B41E6000000000000ED
:1047A0000000000000000000FB21E93F7CD902402E
:1047B00000004054FB21F93F3163621A61B4D03DDF
:1047C000FB21F93F000000000000601A61B4D03DF9
:1047D0007370032E8A19A33BFB21394100000000AE
:1047E00083C8C96D305FE43F000000000000E03F77
:1047F000321C0000801B0000000000000000103E82
:10480000000000000000103C000000000000103A12
:10481000182D4454FB21F93D3326A611460B113CBB
:1048200000000054FB21F93D10B52DED040B2DEDDA
:10483000088B82B0B0EE419AF0EE619A0B9820F0AE
:1048400000449FED4BABB4F1795F11DA9DED0A0B9B
:1048500051EC100B00F0A4FF002801BFB0EE4A0A93
:10486000F0EE6A0A02B0BDEC088B04BF04B010BDC4
:104870009DED0A0B53EC102B51EC100B01F062F87C
:1048800041EC180B3C480621B0EE480AF0EE680AED
:10489000784400F081F853EC182B51EC100B01F028
:1048A00051F89DED0A0B41EC1B0B53EC192B51EC0D
:1048B000100B01F047F841EC190B53EC1B2B51EC9A
:1048C000180B01F03FF853EC192B01F047FA9FED5C
:1048D0002C0B41EC190B53EC102B51EC180B01F085
:1048E00031F841EC100B2848844210DA53EC192BB4
:1048F00051EC100B01F032FA53EC1A2B01F056F97F
:1049000041EC100B02B0BDEC088B04B010BD1F4889
:10491000A042BCBF9FED1E1B8DED001B06DBA4F566
:1049200000100190002000909DED001B51EC100B39
:1049300053EC112B01F012FA9DED000B41EC180B1A
:1049400053EC102B51EC1A0B01F008FA41EC1A0B46
:1049500053EC192B51EC180B01F000FA53EC1A2B05
:1049600001F024F941EC100BCCE70000000000003E
:10497000000000000000F03F7C1800000000000074
:10498000000000000000E03F3333D33F0000E93F68
:10499000000000000000D23F70B504462DED028BF0
:1049A0004D1E00EBC500B0EE408AF0EE608A90ED3F
:1049B000000B35F0060017D053EC182B51EC100B00
:1049C00000F0C0FF41EC100B6D1E04EBC50090ED34
:1049D000001B51EC100B53EC112B00F091FC41EC3F
:1049E000100B35F00600E7D1022D36D0042D1CD077
:1049F000062D1CBFBDEC028B70BD53EC182B51EC87
:104A0000100B00F09FFF94ED0A1B53EC112B00F0EC
:104A100077FC53EC182B00F095FF94ED081B53EC3A
:104A2000112B00F06DFC41EC100B53EC182B51ECEA
:104A3000100B00F087FF94ED061B53EC112B00F0D8
:104A40005FFC53EC182B00F07DFF94ED040B53EC4E
:104A5000102B00F055FC41EC100B53EC182B51ECD3
:104A6000100B00F06FFF94ED021B53EC112B00F0C4
:104A700047FC53EC182B00F065FF94ED001B53EC42
:104A8000112B00F03DFCBDEC028B41EC100B70BD16
:104A900031B504462DED040B2DED0A8BB0EE41BA75
:104AA000F0EE61BA0B989DED0A0B20F00040B0F1DA
:104AB000795F0DDA51EC100BFFF764F8042808BF9A
:104AC00000F0B6F89DED0A0BBDEC0A8B05B030BDC9
:104AD00053EC102B51EC100B00F034FF41EC180B91
:104AE0009DED0A0B53EC182B51EC100B00F02AFF34
:104AF00041EC190B2C48B0EE480AF0EE680A05218B
:104B00007844FFF749FF9FED2ACBB0EE40AAF0EEC4
:104B100060AA9CB353EC1C2B51EC190B00F012FF54
:104B200041EC1C0B53EC1A2B51EC190B00F00AFF53
:104B30009FED210B41EC190B53EC102B51EC1B0B8F
:104B400000F000FF53EC192B01F008F953EC182B7F
:104B500000F0F8FE53EC1B2B01F000F953EC1C2B7A
:104B600001F0FCF89DED0A1B53EC112B01F01EF82F
:104B7000BDEC0A8B05B041EC100B30BDFFE753ECE8
:104B80001A2B51EC180B00F0DDFE53EC1C2B00F03F
:104B9000B7FB53EC192B00F0D5FE9DED0A1B53EC2F
:104BA000112B00F0ADFBE3E734170000000000001C
:104BB000495555555555C5BF000000000000E03F60
:104BC00010B553EC102B51EC100B00F099FB41EC9D
:104BD000100B10BD000000009FED050B10B553EC4D
:104BE000102B51EC100B00F047FC41EC100B10BDEA
:104BF00000000000000000009FED050B10B553EC15
:104C0000102B51EC100B00F09DFE41EC100B10BD71
:104C1000000000000000007010B553EC102B51ECA8
:104C2000100B00F08FFE41EC100B10BD00000000D7
:104C30009FED050B10B553EC102B51EC100B00F051
:104C400081FE41EC100B10BD0000000000000010C0
:104C500070B52DED020B2DED0C8B82B00F9C9DEDF0
:104C60000E0B14F0004508BF8DED000B05D051EC84
:104C7000100B00F007FBCDE90001FF4824F00044D1
:104C800084424BD3FD489FEDFE8BA04234D8FE48B2
:104C900084421BD30E99C4F31300084309D09DED41
:104CA0000E0B02B0BDEC0C8B02B0BDE87040FFF7FC
:104CB00087BF35B99DED0E0B02B0BDEC0C8B02B079
:104CC00070BDB0EE480AF0EE680AF5E79FEDF00B14
:104CD00053EC102B9DED0E0B51EC100B00F030FF40
:104CE0000AD20220FBF7CCFB02B0BDEC0C8B02B069
:104CF000BDE87040FFF780BF85B19FEDE70B53EC37
:104D0000102B9DED0E0B51EC100B00F0F9FA9FEDFE
:104D1000E40B53EC102B00F0D9FDD2D3E2489FED09
:104D2000E4AB844240F20581E3489FEDE59B9FEDB3
:104D3000E68BA04215D99DED0E0B53EC192B51ECCF
:104D4000100B45B100F0DCFA41EC190B9FEDE08B44
:104D50004FF0FF3440E001F001F841EC190B012461
:104D60003AE09FEDDD0B53EC102B9DED0E0B51EC5B
:104D7000100B00F0E7FD41EC100B002D12BF9FED72
:104D8000D81BB0EE4A1AF0EE6A1A53EC112B51EC14
:104D9000100B00F0B5FA00F003FD044600F02FFD03
:104DA000CDE900019DED000B53EC192B51EC100BDC
:104DB00000F0C8FD9DED0E1B53EC112B00F0F6FE2C
:104DC0009DED000B41EC190B53EC182B51EC100B23
:104DD00000F0B8FD41EC180B51EC190B53EC182BFB
:104DE00000F0BCFFCDE90E019DED0E0B53EC192B2D
:104DF00051EC100B00F0DAFE53EC182B00F0AEFF74
:104E000041EC1B0B9DED0E0B53EC1A2B51EC100BD0
:104E100000F098FD41EC1D0B9DED0E0B53EC1D2B8E
:104E200051EC100B00F08EFD41EC180BAE48052143
:104E3000B0EE480AF0EE680A7844FFF7ADFD53EC97
:104E4000182B51EC100B00F07DFD9FEDA99B53EC4E
:104E5000192B00F055FA41EC1C0B53EC1D2B00F004
:104E600071FD9FEDA51B53EC112B00F09FFECDE9CA
:104E700000019DED000B53EC102B9DED0E0B51EC42
:104E8000100B00F05FFD9FED9E1B53EC112B00F00B
:104E90008DFE9DED000B41EC1D0B53EC102B51ECE6
:104EA0001C0B00F05BFF53EC1D2B00F0E5FA53ECFC
:104EB000182B00F047FD41EC100BCCB353EC1B2B2F
:104EC00051EC100B00F04AFF9DED0E1B53EC112B23
:104ED00000F038FD53EC1B2B00F040FF53EC182B77
:104EE00000F03CFF41EC180BB4F1FF3F47D0012C20
:104EF00056D014F1020F01DD382C71DD9DED0E0B43
:104F000053EC182B51EC100B00F050FE53EC192B06
:104F100000F04CFECDE9000101EB045001909DED45
:104F2000000B53EC192B51EC100B00F017FF54E061
:104F300010E07548A04298BF00247FF663AF9DED56
:104F40000E0B51EC100BFEF71DFE042808BFFFF7F7
:104F50006FFEAFE653EC102B9DED0E0B51EC100BDA
:104F600000F0F0FC53EC182B00F0F8FE9DED0E1B4A
:104F700053EC112B00F01AFE41EC100B9CE69DED5A
:104F80000E0B53EC182B51EC100B00F0E7FE53EC1A
:104F90001A2B00F0D7FC53EC1A2B00F0DFFE1CE0BC
:104FA0009FED5B0B53EC102B9DED0E0B51EC100B9A
:104FB00000F08CFC15D29DED0E0B53EC1A2B51EC2E
:104FC000100B00F09DF953EC182B00F0EFFD9FED56
:104FD000521B53EC112B00F0B5FC41EC100B6BE6AF
:104FE00012E09DED0E0B53EC182B51EC100B00F062
:104FF000B5FE9FED4B1B53EC112B00F0A3FC53ECC3
:10500000192B00F07DF9E8E78DED009B142C1BDADD
:105010004FF40010E040C0F17F6000F1405001907B
:105020009DED0E0B53EC182B51EC100B00F0BEFD58
:105030009DED001B53EC112B00F0B8FDCDE90001F4
:1050400001EB045001907AE040F2FF30001B0005B4
:1050500001909DED000B51EC180B53EC102B00F060
:105060004FF99DED0E1B53EC112B00F09FFD53ECFF
:10507000192BCDE9000157E07A684340422E864063
:10508000000000000000F0BF0000F07F0000000002
:10509000EF39FAFE422E864059F3F8C21F6EA50181
:1050A0000000000000000000422ED63F000000007B
:1050B000000000000000E03FB2A2F03F000000004E
:1050C0000000E0FE422EE63F763C7935EF39EA3DBE
:1050D000763C7935EF39EABDFE822B654715F73FFF
:1050E000000000000000E0BF04130000000000000A
:1050F000000000000000F03F000000000000084039
:1051000000000000000018400000903C000000007B
:10511000000000000000D0BF00000000000000C040
:1051200000000000000000409DED000B51EC100B52
:1051300000F0E6F8CDE9000101EB045001909DED8F
:10514000000BB9E510B5044691ED000BFEF734FDF8
:1051500084ED000A10BD10B5044690ED000B084622
:10516000FFF79EF884ED000B10BD30380A2801D2FD
:10517000012070470020704710B541EC100BFEF77E
:10518000E3FE51EC100B10BD82B0CDE9000121F01F
:10519000004001909DED000B02B051EC100B7047E8
:1051A00010B582B01446CDE900010023009A2360B7
:1051B000194B21F0004098422ADA024328D0B0F57A
:1051C000801FA8BF226810DA9FED150B53EC102B3F
:1051D0009DED000B51EC100B00F0B4FBCDE900018C
:1051E0006FF0350221F0004022600F4B6FF31E512B
:1051F00003EB20501044206041F0FF5040F000507D
:1052000001909DED000B00BF02B051EC100B10BDE2
:105210009DED000BF8E700000000F07F00000000AB
:10522000000000000000504302FCFFFF10B5002901
:105230000AD00878002807D005487844FBF710FD0D
:10524000002801D0002010BD0248784410BD0000A5
:105250001E1100001611000010B500290AD00878B0
:10526000002807D005487844FBF7FAFC002801D055
:10527000002010BD0248784410BD00000E1100004F
:105280000611000081F00041704780F00040704737
:1052900021F00041704720F00040704721F00042AB
:1052A00001F00043A2F16052B2F5801F28BFD2F195
:1052B0007F6C0BD95FEA001C43EAC20242EB5070DC
:1052C00018BF704728BF20F001007047B2F5801F5B
:1052D000BCBF184670474FEA410C1CF5001F02D2B4
:1052E000084600F05CBE70B500F0D6FB00000089F7
:1052F000FFF7F6BF4FF00040A0F5800070470000B8
:1053000010B591EA030F48BF83F0004300F12E85EA
:10531000841A71EB030C05D2121943EB0C03001B2A
:1053200061EB0C014FEA1154A4EB135CDFF81CE1B4
:105330001EEA430F18BF9EEA445F73D021EA04516E
:1053400023EA0E0343F48013DCF1200E32D322FA59
:105350000CFE10EB0E0023FA0CFE41EB0E01CCF11B
:10536000200E03FA0EFE10EB0E00CCF1200E51F1D0
:105370000001B1F5801F32D201EB045112FA0EF296
:10538000BDE8104058BF7047401C38BF5FEA42027A
:1053900018BF7047002814BF20F0010041F1000140
:1053A0004FEA410313F5001F38BF7047A1F1C04118
:1053B00000F0C0BB012A43EB0302ACF1200CDCF18E
:1053C0001F0E32BF4FF0000E23FA0CF310EB030058
:1053D00041EB0451B4EB115FD0D0A1EB045101F5C6
:1053E0008011490801EB04515FEA30000ED350F1FF
:1053F000000038BF12FA0EFE08D1BDE81040C9E720
:10540000401C38BF5FEA4202CAD1C3E7BDE8104082
:105410004FEA410313F5001F38BF7047A1F1C041A7
:1054200000F088BB9EEA445F08D011EA5E0FBDE839
:10543000104004BF01F0004100207047BDE810405B
:1054400070B500F029FB00BF64FBBE3E0000E0FF2A
:1054500002494FF0000000F0AABD00BF0000F87F35
:10546000491058BFC1F140415B1058BFC3F14043E0
:105470008B42EFF3008070472DE9C04130B4DFF874
:10548000A0C23CEA111418BF3CEA131400F0EC80EF
:105490001CEA111481EA030544EAD57418BF1CEA1A
:1054A000131500F0C780A4EB050404F17F7404F524
:1054B00000344FF0004545EAC12145EAC32341EAE3
:1054C000505143EA52534FEAC0204FEAC222994258
:1054D00008BF904200F09C804FEA13650FF240161F
:1054E000765D4FEA134506FB05F7C7F1807706FBAB
:1054F00007F74FEAD737A7FB03687642A7FB06CE2C
:10550000C8F5803838BFA8F1010807FB08E6A6FBFC
:10551000028C4FF0000EE6FB03CEDCF1000CCEF166
:10552000004E38BFAEF1010EA6FB0C584FF000073D
:10553000E6FB0E87A1FB08C6A0FB07CE16EB0E0606
:105540004FF0000545F10005E1FB076515F1E04E60
:105550007EBFA4F580345FEA46066D4116F18007F0
:1055600045F100054FEA172747EA05674FEA152579
:105570004FEA0666A6F1DE46B6F1805F1FD93846CF
:1055800005EBC47124F0010C01EB0C11BCF1FE6FB2
:1055900002D8F0BCBDE8008124425CBF01F5801E4A
:1055A0009EEAC47F02D4F0BCBDE80081244238D416
:1055B000A1F1C041F0BCBDE8004100F0BBBA4FEA28
:1055C000D02040EA41504FEAD1214FEAD22242EAAC
:1055D00043524FEAD323A7FB028607FB036605FB72
:1055E00002661EEA0E0F58BFA6EB0056B6EB005639
:1055F0004FEA520E4EEAC37E18EB0E0E56EB530ED8
:10560000BDD518EB02085E417F1C55F10005B6E7D9
:105610004FF480154FF000074FF000064FF00008E0
:10562000ADE701F1C04101F000414FF00000F0BCD6
:10563000BDE800810CEA131511EA0C1F00D00CE044
:1056400013EA0C1F00F025804FF0000081EA0301EF
:1056500001F00041F0BCBDE80081F0BCBDE80041B4
:1056600081EA030100F066BAF0BCBDE8004170B504
:1056700000F012FA097EFC3E00F007B84FF000007F
:1056800081EA030101F00041704781EA030100F063
:1056900051BAF0BCBDE8004122494FF0000070470C
:1056A000FFFDFBF9F7F5F4F2F0EEEDEBE9E8E6E4E7
:1056B000E3E1E0DEDDDBDAD8D7D5D4D3D1D0CFCD6E
:1056C000CCCBCAC8C7C6C5C4C2C1C0BFBEBDBCBBA7
:1056D000BAB9B8B7B6B5B4B3B2B1B0AFAEADACABA2
:1056E000AAA9A8A8A7A6A5A4A3A3A2A1A09F9F9E7C
:1056F0009D9C9C9B9A99999897979695959493932E
:10570000929191908F8F8E8E8D8C8C8B8B8A8989C4
:105710008888878786858584848383828281818047
:105720000000FF070000F87F51EA030C17D41CF5B6
:10573000801F58BFBCF5801F00F10680994218BF3A
:10574000704708BF9042704707D711F5801F58BFB8
:1057500013F5801F19D499427047894270471CF590
:10576000801F08D5BCF5801FF7D58B4218BF704746
:1057700008BF824270474FF4001C1CEB410F38BF3A
:105780001CEB430F01D28B42704770B500F084F9D7
:10579000922449004FF000514FF08053FFF760BE54
:1057A0004FEA41034FEA5353A3F58063D3F11E033D
:1057B000C8BFD3F1210C0CDD4FF0004242EAC122F8
:1057C00042EA505232FA03FC8CEAE17CACEBE17025
:1057D0007047102BC4BF0020704703F5787CBCF1E4
:1057E000FF3F04D06FF0004282EA2100704770B59D
:1057F00000F052F94992248000207047F2E710F03F
:10580000004248BF4042B0FA80F310FA03F10AD0D8
:10581000C3F11D0303F5806302EB03524FEA4150CD
:1058200002EBD12170474FF000007047B0FA80F3CF
:1058300010FA03F10AD0C3F11D0303F580634FEAA8
:1058400003524FEA415002EBD12170474FF0000064
:105850007047000051EA030C17D41CF5801F58BF95
:10586000BCF5801F00F10680994218BF704708BF41
:105870009042704707D711F5801F58BF13F5801F5E
:1058800019D499427047894270471CF5801F08D58A
:10589000BCF5801FF7D58B4218BF704708BF824206
:1058A00070474FF4001C1CEB410F38BF1CEB430F3B
:1058B00001D28B42704770B500F0EEF89224490097
:1058C0004FF080514FF00053FFF7CABD51EA030C6F
:1058D00017D41CF5801F58BFBCF5801F00F106804F
:1058E000994218BF704708BF9042704707D711F51B
:1058F000801F58BF13F5801F19D499427047894201
:1059000070471CF5801F08D5BCF5801FF7D58B426A
:1059100018BF704708BF824270474FF4001C1CEB51
:10592000410F38BF1CEB430F01D28B42704770B55B
:1059300000F0B2F8922449004FF000514FF080532C
:10594000FFF78EBD70B5DFF848C11CEA111E1EBFFF
:105950001CEA13159EEA0C0F95EA0C0F00F06F80FD
:1059600081EA03044EEAD47EAE4421EA4C1123EAD4
:105970004C1341F4801143F48013AEF17F7EA1FB00
:10598000024CA0FB0365361955EB0C05A1FB034C3B
:105990004CF10003A0FB021C16EB0C06654153F111
:1059A0000003094218BF46F0010613F4007F0BD133
:1059B0004FEA03314FEA053041EA155140EA1650EB
:1059C00034036FF003020AE04FEAC3214FEAC52017
:1059D00041EA555140EA5650F4026FF0020202EBE0
:1059E0002E4201EB025585EACE710AD05FEA440CE3
:1059F00018BF24F0004450F1000041F1000120EAFA
:105A0000D47040F2FE7C624500D270BDA84214BF43
:105A10004FF080444FF04044002E08BF0024BEF1F8
:105A2000806FA8BFA1F1C041BDE8704080F28280C4
:105A300001F1C04101F000414FF0000070470CEA55
:105A400013159EEA0C0F18BF95EA0C0F06D081EAD9
:105A5000030E4FF000000EF0004170BD00F01CF886
:105A60008900013E00F007B800F009B84FEA430C86
:105A70005FEA5C5C08D081EA030100F05BB84FEAA2
:105A8000410C5FEA5C5CF6D102494FF000007047C0
:105A90000000FF070000F87F0EF1020E2EF0030E4B
:105AA0005EF8046B364205D4012A43EB030515F575
:105AB000001F12D8012841EB010C1CF5001F0CD867
:105AC0000ED14FEAD17C0CEB4C0C0CF1020C15F50D
:105AD000001F08BF4CEBD37C04E04FF0080C01E042
